{
  "contractName": "EthSwap",
  "abi": [
    {
      "anonymous": false,
      "inputs": [
        {
          "indexed": true,
          "internalType": "address",
          "name": "user",
          "type": "address"
        },
        {
          "indexed": false,
          "internalType": "uint256",
          "name": "amount",
          "type": "uint256"
        },
        {
          "indexed": false,
          "internalType": "uint256",
          "name": "index",
          "type": "uint256"
        },
        {
          "indexed": false,
          "internalType": "uint256",
          "name": "timestamp",
          "type": "uint256"
        }
      ],
      "name": "Staked",
      "type": "event"
    },
    {
      "anonymous": false,
      "inputs": [
        {
          "indexed": false,
          "internalType": "address",
          "name": "account",
          "type": "address"
        },
        {
          "indexed": false,
          "internalType": "address",
          "name": "token",
          "type": "address"
        },
        {
          "indexed": false,
          "internalType": "uint256",
          "name": "amount",
          "type": "uint256"
        },
        {
          "indexed": false,
          "internalType": "uint256",
          "name": "rateFtp",
          "type": "uint256"
        }
      ],
      "name": "TokensPurchased",
      "type": "event"
    },
    {
      "inputs": [],
      "name": "countIntrest",
      "outputs": [
        {
          "internalType": "uint256",
          "name": "",
          "type": "uint256"
        }
      ],
      "stateMutability": "view",
      "type": "function",
      "constant": true
    },
    {
      "inputs": [],
      "name": "currentTime",
      "outputs": [
        {
          "internalType": "uint256",
          "name": "",
          "type": "uint256"
        }
      ],
      "stateMutability": "view",
      "type": "function",
      "constant": true
    },
    {
      "inputs": [],
      "name": "incentiveAmount",
      "outputs": [
        {
          "internalType": "uint256",
          "name": "",
          "type": "uint256"
        }
      ],
      "stateMutability": "view",
      "type": "function",
      "constant": true
    },
    {
      "inputs": [
        {
          "internalType": "address",
          "name": "",
          "type": "address"
        }
      ],
      "name": "isStaking",
      "outputs": [
        {
          "internalType": "bool",
          "name": "",
          "type": "bool"
        }
      ],
      "stateMutability": "view",
      "type": "function",
      "constant": true
    },
    {
      "inputs": [],
      "name": "name",
      "outputs": [
        {
          "internalType": "string",
          "name": "",
          "type": "string"
        }
      ],
      "stateMutability": "view",
      "type": "function",
      "constant": true
    },
    {
      "inputs": [],
      "name": "oneDay",
      "outputs": [
        {
          "internalType": "uint256",
          "name": "",
          "type": "uint256"
        }
      ],
      "stateMutability": "view",
      "type": "function",
      "constant": true
    },
    {
      "inputs": [],
      "name": "sixMonth",
      "outputs": [
        {
          "internalType": "uint256",
          "name": "",
          "type": "uint256"
        }
      ],
      "stateMutability": "view",
      "type": "function",
      "constant": true
    },
    {
      "inputs": [
        {
          "internalType": "uint256",
          "name": "",
          "type": "uint256"
        }
      ],
      "name": "stakeholders",
      "outputs": [
        {
          "internalType": "address",
          "name": "user",
          "type": "address"
        }
      ],
      "stateMutability": "view",
      "type": "function",
      "constant": true
    },
    {
      "inputs": [
        {
          "internalType": "uint256",
          "name": "",
          "type": "uint256"
        }
      ],
      "name": "stakers",
      "outputs": [
        {
          "internalType": "address",
          "name": "",
          "type": "address"
        }
      ],
      "stateMutability": "view",
      "type": "function",
      "constant": true
    },
    {
      "inputs": [
        {
          "internalType": "address",
          "name": "",
          "type": "address"
        }
      ],
      "name": "stakes",
      "outputs": [
        {
          "internalType": "uint256",
          "name": "",
          "type": "uint256"
        }
      ],
      "stateMutability": "view",
      "type": "function",
      "constant": true
    },
    {
      "inputs": [
        {
          "internalType": "address",
          "name": "",
          "type": "address"
        }
      ],
      "name": "stakingBalance",
      "outputs": [
        {
          "internalType": "uint256",
          "name": "",
          "type": "uint256"
        }
      ],
      "stateMutability": "view",
      "type": "function",
      "constant": true
    },
    {
      "inputs": [],
      "name": "timeDiffrence",
      "outputs": [
        {
          "internalType": "uint256",
          "name": "",
          "type": "uint256"
        }
      ],
      "stateMutability": "view",
      "type": "function",
      "constant": true
    },
    {
      "inputs": [],
      "name": "token",
      "outputs": [
        {
          "internalType": "contract IERC20",
          "name": "",
          "type": "address"
        }
      ],
      "stateMutability": "view",
      "type": "function",
      "constant": true
    },
    {
      "inputs": [],
      "name": "twelveMonth",
      "outputs": [
        {
          "internalType": "uint256",
          "name": "",
          "type": "uint256"
        }
      ],
      "stateMutability": "view",
      "type": "function",
      "constant": true
    },
    {
      "inputs": [],
      "name": "twentyFourMonth",
      "outputs": [
        {
          "internalType": "uint256",
          "name": "",
          "type": "uint256"
        }
      ],
      "stateMutability": "view",
      "type": "function",
      "constant": true
    },
    {
      "inputs": [],
      "name": "unstakeAmount",
      "outputs": [
        {
          "internalType": "uint256",
          "name": "",
          "type": "uint256"
        }
      ],
      "stateMutability": "view",
      "type": "function",
      "constant": true
    },
    {
      "inputs": [
        {
          "internalType": "contract IERC20",
          "name": "_token",
          "type": "address"
        },
        {
          "internalType": "string",
          "name": "_name",
          "type": "string"
        },
        {
          "internalType": "uint256",
          "name": "_oneDay",
          "type": "uint256"
        },
        {
          "internalType": "uint256",
          "name": "_sixMonth",
          "type": "uint256"
        },
        {
          "internalType": "uint256",
          "name": "_twelveMonth",
          "type": "uint256"
        },
        {
          "internalType": "uint256",
          "name": "_twentyFourMonth",
          "type": "uint256"
        }
      ],
      "name": "storeConstructor",
      "outputs": [],
      "stateMutability": "nonpayable",
      "type": "function"
    },
    {
      "inputs": [
        {
          "internalType": "uint256",
          "name": "_liveRate",
          "type": "uint256"
        }
      ],
      "name": "buyTokens",
      "outputs": [],
      "stateMutability": "payable",
      "type": "function",
      "payable": true
    },
    {
      "inputs": [
        {
          "internalType": "uint256",
          "name": "_amount",
          "type": "uint256"
        },
        {
          "internalType": "uint256",
          "name": "status",
          "type": "uint256"
        }
      ],
      "name": "stakeTokens",
      "outputs": [],
      "stateMutability": "nonpayable",
      "type": "function"
    },
    {
      "inputs": [
        {
          "internalType": "uint256",
          "name": "index",
          "type": "uint256"
        }
      ],
      "name": "_withdrawStake",
      "outputs": [
        {
          "internalType": "uint256",
          "name": "",
          "type": "uint256"
        }
      ],
      "stateMutability": "nonpayable",
      "type": "function"
    }
  ],
  "bytecode": "0x608060405234801561001057600080fd5b50611b8c806100206000396000f3fe60806040526004361061011f5760003560e01c806369c4d162116100a0578063be4d0ede11610064578063be4d0ede146103f0578063cae5d73b1461041b578063d18e81b314610446578063fc0c546a14610471578063fd5e6dd11461049c5761011f565b806369c4d162146103095780636f49712b14610332578063986feefa1461036f57806399e1dcc31461039a578063a41409c8146103c55761011f565b80633b7b6188116100e75780633b7b61881461021057806345b701981461023957806345bc78ab146102765780634bd9351b146102b35780636118fa9f146102de5761011f565b806306fdde031461012457806316934fc41461014f5780631d6b8b721461018c5780631fa58c26146101c95780633610724e146101f4575b600080fd5b34801561013057600080fd5b506101396104d9565b6040516101469190611715565b60405180910390f35b34801561015b57600080fd5b50610176600480360381019061017191906113e9565b610567565b6040516101839190611757565b60405180910390f35b34801561019857600080fd5b506101b360048036038101906101ae91906114dc565b61057f565b6040516101c0919061161f565b60405180910390f35b3480156101d557600080fd5b506101de6105cd565b6040516101eb9190611757565b60405180910390f35b61020e600480360381019061020991906114dc565b6105d3565b005b34801561021c57600080fd5b506102376004803603810190610232919061152e565b6107ad565b005b34801561024557600080fd5b50610260600480360381019061025b91906114dc565b610b79565b60405161026d9190611757565b60405180910390f35b34801561028257600080fd5b5061029d600480360381019061029891906113e9565b611001565b6040516102aa9190611757565b60405180910390f35b3480156102bf57600080fd5b506102c8611019565b6040516102d59190611757565b60405180910390f35b3480156102ea57600080fd5b506102f361101f565b6040516103009190611757565b60405180910390f35b34801561031557600080fd5b50610330600480360381019061032b919061143b565b611025565b005b34801561033e57600080fd5b50610359600480360381019061035491906113e9565b6110bf565b60405161036691906116df565b60405180910390f35b34801561037b57600080fd5b506103846110df565b6040516103919190611757565b60405180910390f35b3480156103a657600080fd5b506103af6110e5565b6040516103bc9190611757565b60405180910390f35b3480156103d157600080fd5b506103da6110eb565b6040516103e79190611757565b60405180910390f35b3480156103fc57600080fd5b506104056110f1565b6040516104129190611757565b60405180910390f35b34801561042757600080fd5b506104306110f7565b60405161043d9190611757565b60405180910390f35b34801561045257600080fd5b5061045b6110fd565b6040516104689190611757565b60405180910390f35b34801561047d57600080fd5b50610486611103565b60405161049391906116fa565b60405180910390f35b3480156104a857600080fd5b506104c360048036038101906104be91906114dc565b611129565b6040516104d0919061161f565b60405180910390f35b600080546104e6906119fb565b80601f0160208091040260200160405190810160405280929190818152602001828054610512906119fb565b801561055f5780601f106105345761010080835404028352916020019161055f565b820191906000526020600020905b81548152906001019060200180831161054257829003601f168201915b505050505081565b600e6020528060005260406000206000915090505481565b600f818154811061058f57600080fd5b90600052602060002090600202016000915090508060000160009054906101000a900473ffffffffffffffffffffffffffffffffffffffff16905081565b60015481565b600081346105e191906118ad565b905080600a60009054906101000a900473ffffffffffffffffffffffffffffffffffffffff1673ffffffffffffffffffffffffffffffffffffffff166370a08231306040518263ffffffff1660e01b815260040161063f919061161f565b60206040518083038186803b15801561065757600080fd5b505afa15801561066b573d6000803e3d6000fd5b505050506040513d601f19601f8201168201806040525081019061068f9190611505565b101561069a57600080fd5b600a60009054906101000a900473ffffffffffffffffffffffffffffffffffffffff1673ffffffffffffffffffffffffffffffffffffffff1663a9059cbb33836040518363ffffffff1660e01b81526004016106f79291906116b6565b602060405180830381600087803b15801561071157600080fd5b505af1158015610725573d6000803e3d6000fd5b505050506040513d601f19601f820116820180604052508101906107499190611412565b507f6faf93231a456e552dbc9961f58d9713ee4f2e69d15f1975b050ef0911053a7b33600a60009054906101000a900473ffffffffffffffffffffffffffffffffffffffff1683856040516107a19493929190611671565b60405180910390a15050565b600082116107f0576040517f08c379a00000000000000000000000000000000000000000000000000000000081526004016107e790611737565b60405180910390fd5b6000600e60003373ffffffffffffffffffffffffffffffffffffffff1673ffffffffffffffffffffffffffffffffffffffff1681526020019081526020016000205490506000429050600082141561084e5761084b33611168565b91505b83600c60003373ffffffffffffffffffffffffffffffffffffffff1673ffffffffffffffffffffffffffffffffffffffff168152602001908152602001600020546108999190611826565b600c60003373ffffffffffffffffffffffffffffffffffffffff1673ffffffffffffffffffffffffffffffffffffffff168152602001908152602001600020819055506001600d60003373ffffffffffffffffffffffffffffffffffffffff1673ffffffffffffffffffffffffffffffffffffffff16815260200190815260200160002060006101000a81548160ff021916908315150217905550600a60009054906101000a900473ffffffffffffffffffffffffffffffffffffffff1673ffffffffffffffffffffffffffffffffffffffff166323b872dd3330876040518463ffffffff1660e01b81526004016109939392919061163a565b602060405180830381600087803b1580156109ad57600080fd5b505af11580156109c1573d6000803e3d6000fd5b505050506040513d601f19601f820116820180604052508101906109e59190611412565b50600f8281548110610a20577f4e487b7100000000000000000000000000000000000000000000000000000000600052603260045260246000fd5b90600052602060002090600202016001016040518060a001604052803373ffffffffffffffffffffffffffffffffffffffff16815260200186815260200183815260200160011515815260200185815250908060018154018082558091505060019003906000526020600020906005020160009091909190915060008201518160000160006101000a81548173ffffffffffffffffffffffffffffffffffffffff021916908373ffffffffffffffffffffffffffffffffffffffff160217905550602082015181600101556040820151816002015560608201518160030160006101000a81548160ff0219169083151502179055506080820151816004015550503373ffffffffffffffffffffffffffffffffffffffff167fb4caaf29adda3eefee3ad552a8e85058589bf834c7466cae4ee58787f70589ed858484604051610b6b93929190611772565b60405180910390a250505050565b600080600e60003373ffffffffffffffffffffffffffffffffffffffff1673ffffffffffffffffffffffffffffffffffffffff1681526020019081526020016000205490506000600f8281548110610bfa577f4e487b7100000000000000000000000000000000000000000000000000000000600052603260045260246000fd5b90600052602060002090600202016001018481548110610c43577f4e487b7100000000000000000000000000000000000000000000000000000000600052603260045260246000fd5b90600052602060002090600502016040518060a00160405290816000820160009054906101000a900473ffffffffffffffffffffffffffffffffffffffff1673ffffffffffffffffffffffffffffffffffffffff1673ffffffffffffffffffffffffffffffffffffffff16815260200160018201548152602001600282015481526020016003820160009054906101000a900460ff16151515158152602001600482015481525050905060011515816060015115151415610ffa576000816060019015159081151581525050426009819055508060400151600954610d289190611907565b60018190555080602001516006819055506000806000600284608001511415610d5c57601e92506019915060149050610d69565b600f9250600a9150600790505b60055460015410610dbb576002836064600654610d86919061187c565b610d9091906118ad565b610d9a91906118ad565b600881905550600654600854610db09190611826565b600781905550610eb2565b60045460015410610e0157816064600654610dd6919061187c565b610de091906118ad565b600881905550600654600854610df69190611826565b600781905550610eb1565b60035460015410610e53576002816064600654610e1e919061187c565b610e2891906118ad565b610e32919061187c565b600881905550600654600854610e489190611826565b600781905550610eb0565b60025460015410610ea5576002816064600654610e70919061187c565b610e7a91906118ad565b610e84919061187c565b600881905550600654600854610e9a9190611826565b600781905550610eaf565b6006546007819055505b5b5b5b600a60009054906101000a900473ffffffffffffffffffffffffffffffffffffffff1673ffffffffffffffffffffffffffffffffffffffff1663a9059cbb336007546040518363ffffffff1660e01b8152600401610f119291906116b6565b602060405180830381600087803b158015610f2b57600080fd5b505af1158015610f3f573d6000803e3d6000fd5b505050506040513d601f19601f82011682018060405250810190610f639190611412565b508360200151600c60003373ffffffffffffffffffffffffffffffffffffffff1673ffffffffffffffffffffffffffffffffffffffff16815260200190815260200160002054610fb39190611907565b600c60003373ffffffffffffffffffffffffffffffffffffffff1673ffffffffffffffffffffffffffffffffffffffff168152602001908152602001600020819055505050505b5050919050565b600c6020528060005260406000206000915090505481565b60025481565b60045481565b600f6001816001815401808255809150500390600052602060002090505085600a60006101000a81548173ffffffffffffffffffffffffffffffffffffffff021916908373ffffffffffffffffffffffffffffffffffffffff160217905550846000908051906020019061109a929190611275565b5083600281905550826003819055508160048190555080600581905550505050505050565b600d6020528060005260406000206000915054906101000a900460ff1681565b60035481565b60085481565b60055481565b60065481565b60075481565b60095481565b600a60009054906101000a900473ffffffffffffffffffffffffffffffffffffffff1681565b600b818154811061113957600080fd5b906000526020600020016000915054906101000a900473ffffffffffffffffffffffffffffffffffffffff1681565b6000600f6001816001815401808255809150500390600052602060002090505060006001600f8054905061119c9190611907565b905082600f82815481106111d9577f4e487b7100000000000000000000000000000000000000000000000000000000600052603260045260246000fd5b906000526020600020906002020160000160006101000a81548173ffffffffffffffffffffffffffffffffffffffff021916908373ffffffffffffffffffffffffffffffffffffffff16021790555080600e60008573ffffffffffffffffffffffffffffffffffffffff1673ffffffffffffffffffffffffffffffffffffffff1681526020019081526020016000208190555080915050919050565b828054611281906119fb565b90600052602060002090601f0160209004810192826112a357600085556112ea565b82601f106112bc57805160ff19168380011785556112ea565b828001600101855582156112ea579182015b828111156112e95782518255916020019190600101906112ce565b5b5090506112f791906112fb565b5090565b5b808211156113145760008160009055506001016112fc565b5090565b600061132b611326846117da565b6117a9565b90508281526020810184848401111561134357600080fd5b61134e8482856119b9565b509392505050565b60008135905061136581611afa565b92915050565b60008151905061137a81611b11565b92915050565b60008135905061138f81611b28565b92915050565b600082601f8301126113a657600080fd5b81356113b6848260208601611318565b91505092915050565b6000813590506113ce81611b3f565b92915050565b6000815190506113e381611b3f565b92915050565b6000602082840312156113fb57600080fd5b600061140984828501611356565b91505092915050565b60006020828403121561142457600080fd5b60006114328482850161136b565b91505092915050565b60008060008060008060c0878903121561145457600080fd5b600061146289828a01611380565b965050602087013567ffffffffffffffff81111561147f57600080fd5b61148b89828a01611395565b955050604061149c89828a016113bf565b94505060606114ad89828a016113bf565b93505060806114be89828a016113bf565b92505060a06114cf89828a016113bf565b9150509295509295509295565b6000602082840312156114ee57600080fd5b60006114fc848285016113bf565b91505092915050565b60006020828403121561151757600080fd5b6000611525848285016113d4565b91505092915050565b6000806040838503121561154157600080fd5b600061154f858286016113bf565b9250506020611560858286016113bf565b9150509250929050565b6115738161193b565b82525050565b6115828161194d565b82525050565b61159181611995565b82525050565b60006115a28261180a565b6115ac8185611815565b93506115bc8185602086016119c8565b6115c581611ae9565b840191505092915050565b60006115dd601483611815565b91507f43616e6e6f74207374616b65206e6f7468696e670000000000000000000000006000830152602082019050919050565b6116198161198b565b82525050565b6000602082019050611634600083018461156a565b92915050565b600060608201905061164f600083018661156a565b61165c602083018561156a565b6116696040830184611610565b949350505050565b6000608082019050611686600083018761156a565b611693602083018661156a565b6116a06040830185611610565b6116ad6060830184611610565b95945050505050565b60006040820190506116cb600083018561156a565b6116d86020830184611610565b9392505050565b60006020820190506116f46000830184611579565b92915050565b600060208201905061170f6000830184611588565b92915050565b6000602082019050818103600083015261172f8184611597565b905092915050565b60006020820190508181036000830152611750816115d0565b9050919050565b600060208201905061176c6000830184611610565b92915050565b60006060820190506117876000830186611610565b6117946020830185611610565b6117a16040830184611610565b949350505050565b6000604051905081810181811067ffffffffffffffff821117156117d0576117cf611aba565b5b8060405250919050565b600067ffffffffffffffff8211156117f5576117f4611aba565b5b601f19601f8301169050602081019050919050565b600081519050919050565b600082825260208201905092915050565b60006118318261198b565b915061183c8361198b565b9250827fffffffffffffffffffffffffffffffffffffffffffffffffffffffffffffffff0382111561187157611870611a2d565b5b828201905092915050565b60006118878261198b565b91506118928361198b565b9250826118a2576118a1611a5c565b5b828204905092915050565b60006118b88261198b565b91506118c38361198b565b9250817fffffffffffffffffffffffffffffffffffffffffffffffffffffffffffffffff04831182151516156118fc576118fb611a2d565b5b828202905092915050565b60006119128261198b565b915061191d8361198b565b9250828210156119305761192f611a2d565b5b828203905092915050565b60006119468261196b565b9050919050565b60008115159050919050565b60006119648261193b565b9050919050565b600073ffffffffffffffffffffffffffffffffffffffff82169050919050565b6000819050919050565b60006119a0826119a7565b9050919050565b60006119b28261196b565b9050919050565b82818337600083830152505050565b60005b838110156119e65780820151818401526020810190506119cb565b838111156119f5576000848401525b50505050565b60006002820490506001821680611a1357607f821691505b60208210811415611a2757611a26611a8b565b5b50919050565b7f4e487b7100000000000000000000000000000000000000000000000000000000600052601160045260246000fd5b7f4e487b7100000000000000000000000000000000000000000000000000000000600052601260045260246000fd5b7f4e487b7100000000000000000000000000000000000000000000000000000000600052602260045260246000fd5b7f4e487b7100000000000000000000000000000000000000000000000000000000600052604160045260246000fd5b6000601f19601f8301169050919050565b611b038161193b565b8114611b0e57600080fd5b50565b611b1a8161194d565b8114611b2557600080fd5b50565b611b3181611959565b8114611b3c57600080fd5b50565b611b488161198b565b8114611b5357600080fd5b5056fea2646970667358221220ae8aa247d968aa70f325636745ca491a37f3f9d290c40863b6ebd4a0265e3d4064736f6c63430008000033",
  "immutableReferences": {},
  "source": "// SPDX-License-Identifier: MIT\npragma solidity ^0.8.0;\n\nimport \"@openzeppelin/contracts/token/ERC20/IERC20.sol\";\n\ncontract EthSwap {\n    string public name;\n    uint256 public timeDiffrence;\n    uint256 public oneDay;\n    uint256 public sixMonth;\n    uint256 public twelveMonth;\n    uint256 public twentyFourMonth;\n    uint256 public unstakeAmount;\n    uint256 public incentiveAmount;\n    uint256 public countIntrest;\n    uint256 public currentTime;\n    IERC20 public token;\n\n    address[] public stakers;\n    mapping(address => uint256) public stakingBalance;\n    mapping(address => bool) public isStaking;\n\n    mapping(address => uint256) public stakes;\n\n    event TokensPurchased(\n        address account,\n        address token,\n        uint256 amount,\n        uint256 rateFtp\n    );\n\n    function storeConstructor(\n        IERC20 _token,\n        string memory _name,\n        uint256 _oneDay,\n        uint256 _sixMonth,\n        uint256 _twelveMonth,\n        uint256 _twentyFourMonth\n    ) public {\n        stakeholders.push();\n        token = _token;\n        name = _name;\n        oneDay = _oneDay;\n        sixMonth = _sixMonth;\n        twelveMonth = _twelveMonth;\n        twentyFourMonth = _twentyFourMonth;\n    }\n\n    struct Stake {\n        address user;\n        uint256 amount;\n        uint256 since;\n        bool claimable;\n        uint256 stakeStatus;\n    }\n    struct Stakeholder {\n        address user;\n        Stake[] address_stakes;\n    }\n\n    Stakeholder[] public stakeholders;\n\n    event Staked(\n        address indexed user,\n        uint256 amount,\n        uint256 index,\n        uint256 timestamp\n    );\n\n    function buyTokens(uint256 _liveRate) public payable {\n        uint256 tokenAmount = msg.value * _liveRate;\n        // uint256 tokenAmount = msg.value * rate;\n        require(token.balanceOf(address(this)) >= tokenAmount);\n\n        token.transfer(msg.sender, tokenAmount);\n\n        emit TokensPurchased(msg.sender, address(token), tokenAmount, _liveRate);\n        // emit TokensPurchased(msg.sender, address(token), tokenAmount, rate);\n    }\n\n//   function buyTokens() public payable {\n//     uint256 tokenAmount = msg.value * rate;\n//     require(token.balanceOf(address(this)) >= tokenAmount);\n\n//     token.transfer(msg.sender, tokenAmount);\n\n//     emit TokensPurchased(msg.sender, address(token), tokenAmount, rate);\n//   }\n\n    function _addStakeholder(address staker) internal returns (uint256) {\n        stakeholders.push();\n        uint256 userIndex = stakeholders.length - 1;\n        stakeholders[userIndex].user = staker;\n        stakes[staker] = userIndex;\n        return userIndex;\n    }\n\n    function stakeTokens(uint256 _amount, uint256 status) public {\n        require(_amount > 0, \"Cannot stake nothing\");\n\n        uint256 index = stakes[msg.sender];\n        uint256 timestamp = block.timestamp;\n        if (index == 0) {\n            index = _addStakeholder(msg.sender);\n        }\n        stakingBalance[msg.sender] = stakingBalance[msg.sender] + _amount;\n        isStaking[msg.sender] = true;\n        token.transferFrom(msg.sender, address(this), _amount);\n\n        stakeholders[index].address_stakes.push(\n            Stake(msg.sender, _amount, timestamp, true, status)\n        );\n        emit Staked(msg.sender, _amount, index, timestamp);\n    }\n\n    function _withdrawStake(uint256 index)\n        public\n        returns (uint256)\n    {\n        uint256 user_index = stakes[msg.sender];\n        Stake memory current_stake = stakeholders[user_index].address_stakes[\n            index\n        ];\n        // require(\n        //     current_stake.amount >= amount,\n        //     \"Staking: Cannot withdraw more than you have staked\"\n        // );\n        // ******************************************************************************************************************* //\n        if (current_stake.claimable == true) {\n            current_stake.claimable = false;\n\n            currentTime = block.timestamp;\n\n            timeDiffrence = currentTime - current_stake.since;\n\n            unstakeAmount = current_stake.amount;\n\n            uint256 ftpPercentage24M;\n            uint256 ftpPercentage12M;\n            uint256 ftpPercentage06M;\n            if (current_stake.stakeStatus == 2) {\n                ftpPercentage24M = 30;\n                ftpPercentage12M = 25;\n                ftpPercentage06M = 20;\n            } else {\n                ftpPercentage24M = 15;\n                ftpPercentage12M = 10;\n                ftpPercentage06M = 7;\n            }\n\n            if (timeDiffrence >= twentyFourMonth) {\n                countIntrest = ((unstakeAmount / 100) * ftpPercentage24M) * 2;\n                incentiveAmount = countIntrest + unstakeAmount;\n\n            } else if (timeDiffrence >= twelveMonth) {\n                countIntrest = ((unstakeAmount / 100) * ftpPercentage12M);\n                incentiveAmount = countIntrest + unstakeAmount;\n\n            } else if (timeDiffrence >= sixMonth) {\n                countIntrest = ((unstakeAmount / 100) * ftpPercentage06M) / 2;\n                incentiveAmount = countIntrest + unstakeAmount;\n\n            } else if (timeDiffrence >= oneDay) {\n                countIntrest = ((unstakeAmount / 100) * ftpPercentage06M) / 2;\n                incentiveAmount = countIntrest + unstakeAmount;\n\n            } else {\n                incentiveAmount = unstakeAmount;\n            }\n\n            token.transfer(msg.sender, incentiveAmount);\n            // token.transfer(msg.sender, current_stake.amount + 10000000000000000000);\n            stakingBalance[msg.sender] =\n                stakingBalance[msg.sender] -\n                current_stake.amount;\n        }\n    }\n}\n",
  "sourcePath": "/home/abdullah/Desktop/fairTrader/fAIRTRADERBLOCKCHAIN/upgradable contract/MAINUPGRADECONTRACT/contracts/EthSwap.sol",
  "compiler": {
    "name": "solc",
    "version": "0.8.0+commit.c7dfd78e.Emscripten.clang"
  },
  "schemaVersion": "3.2.2",
  "updatedAt": "2022-02-26T09:19:21.824Z",
  "networkType": "ethereum",
  "devdoc": {
    "kind": "dev",
    "methods": {},
    "version": 1
  },
  "userdoc": {
    "kind": "user",
    "methods": {},
    "version": 1
  }
}