{
  "contractName": "FairTraderExchangeV2",
  "abi": [
    {
      "anonymous": false,
      "inputs": [
        {
          "indexed": true,
          "internalType": "address",
          "name": "previousOwner",
          "type": "address"
        },
        {
          "indexed": true,
          "internalType": "address",
          "name": "newOwner",
          "type": "address"
        }
      ],
      "name": "OwnershipTransferred",
      "type": "event"
    },
    {
      "anonymous": false,
      "inputs": [
        {
          "indexed": true,
          "internalType": "address",
          "name": "user",
          "type": "address"
        },
        {
          "indexed": false,
          "internalType": "uint256",
          "name": "amount",
          "type": "uint256"
        },
        {
          "indexed": false,
          "internalType": "uint256",
          "name": "index",
          "type": "uint256"
        },
        {
          "indexed": false,
          "internalType": "uint256",
          "name": "timestamp",
          "type": "uint256"
        }
      ],
      "name": "Staked",
      "type": "event"
    },
    {
      "anonymous": false,
      "inputs": [
        {
          "indexed": false,
          "internalType": "address",
          "name": "account",
          "type": "address"
        },
        {
          "indexed": false,
          "internalType": "address",
          "name": "token",
          "type": "address"
        },
        {
          "indexed": false,
          "internalType": "uint256",
          "name": "amount",
          "type": "uint256"
        },
        {
          "indexed": false,
          "internalType": "uint256",
          "name": "rateFtp",
          "type": "uint256"
        }
      ],
      "name": "TokensPurchased",
      "type": "event"
    },
    {
      "inputs": [],
      "name": "name",
      "outputs": [
        {
          "internalType": "string",
          "name": "",
          "type": "string"
        }
      ],
      "stateMutability": "view",
      "type": "function",
      "constant": true
    },
    {
      "inputs": [],
      "name": "owner",
      "outputs": [
        {
          "internalType": "address",
          "name": "",
          "type": "address"
        }
      ],
      "stateMutability": "view",
      "type": "function",
      "constant": true
    },
    {
      "inputs": [],
      "name": "renounceOwnership",
      "outputs": [],
      "stateMutability": "nonpayable",
      "type": "function"
    },
    {
      "inputs": [
        {
          "internalType": "uint256",
          "name": "",
          "type": "uint256"
        }
      ],
      "name": "stakeholders",
      "outputs": [
        {
          "internalType": "address",
          "name": "user",
          "type": "address"
        }
      ],
      "stateMutability": "view",
      "type": "function",
      "constant": true
    },
    {
      "inputs": [
        {
          "internalType": "uint256",
          "name": "",
          "type": "uint256"
        }
      ],
      "name": "stakers",
      "outputs": [
        {
          "internalType": "address",
          "name": "",
          "type": "address"
        }
      ],
      "stateMutability": "view",
      "type": "function",
      "constant": true
    },
    {
      "inputs": [
        {
          "internalType": "address",
          "name": "",
          "type": "address"
        }
      ],
      "name": "stakes",
      "outputs": [
        {
          "internalType": "uint256",
          "name": "",
          "type": "uint256"
        }
      ],
      "stateMutability": "view",
      "type": "function",
      "constant": true
    },
    {
      "inputs": [
        {
          "internalType": "address",
          "name": "",
          "type": "address"
        }
      ],
      "name": "stakingBalance",
      "outputs": [
        {
          "internalType": "uint256",
          "name": "",
          "type": "uint256"
        }
      ],
      "stateMutability": "view",
      "type": "function",
      "constant": true
    },
    {
      "inputs": [],
      "name": "token",
      "outputs": [
        {
          "internalType": "contract IERC20Upgradeable",
          "name": "",
          "type": "address"
        }
      ],
      "stateMutability": "view",
      "type": "function",
      "constant": true
    },
    {
      "inputs": [
        {
          "internalType": "address",
          "name": "newOwner",
          "type": "address"
        }
      ],
      "name": "transferOwnership",
      "outputs": [],
      "stateMutability": "nonpayable",
      "type": "function"
    },
    {
      "inputs": [
        {
          "internalType": "contract IERC20Upgradeable",
          "name": "_token",
          "type": "address"
        },
        {
          "internalType": "string",
          "name": "_name",
          "type": "string"
        },
        {
          "internalType": "address",
          "name": "_adminWalletAddress",
          "type": "address"
        }
      ],
      "name": "storeConstructor",
      "outputs": [],
      "stateMutability": "nonpayable",
      "type": "function"
    },
    {
      "inputs": [],
      "name": "getBalance",
      "outputs": [
        {
          "internalType": "uint256",
          "name": "",
          "type": "uint256"
        }
      ],
      "stateMutability": "view",
      "type": "function",
      "constant": true
    },
    {
      "inputs": [],
      "name": "exchangeHistoryOfStake",
      "outputs": [
        {
          "components": [
            {
              "internalType": "address",
              "name": "user",
              "type": "address"
            },
            {
              "components": [
                {
                  "internalType": "uint256",
                  "name": "amount",
                  "type": "uint256"
                },
                {
                  "internalType": "uint256",
                  "name": "since",
                  "type": "uint256"
                },
                {
                  "internalType": "uint256",
                  "name": "stakeStatus",
                  "type": "uint256"
                },
                {
                  "internalType": "address",
                  "name": "user",
                  "type": "address"
                },
                {
                  "internalType": "bool",
                  "name": "claimable",
                  "type": "bool"
                }
              ],
              "internalType": "struct FairTraderExchangeV2.Stake[]",
              "name": "address_stakes",
              "type": "tuple[]"
            }
          ],
          "internalType": "struct FairTraderExchangeV2.Stakeholder[]",
          "name": "",
          "type": "tuple[]"
        }
      ],
      "stateMutability": "view",
      "type": "function",
      "constant": true
    },
    {
      "inputs": [
        {
          "internalType": "address payable",
          "name": "recipient",
          "type": "address"
        }
      ],
      "name": "adminWithdraw",
      "outputs": [],
      "stateMutability": "payable",
      "type": "function",
      "payable": true
    },
    {
      "inputs": [],
      "name": "adminWithdrawToken",
      "outputs": [],
      "stateMutability": "payable",
      "type": "function",
      "payable": true
    },
    {
      "inputs": [
        {
          "internalType": "uint256",
          "name": "_liveRate",
          "type": "uint256"
        }
      ],
      "name": "buyTokens",
      "outputs": [],
      "stateMutability": "payable",
      "type": "function",
      "payable": true
    },
    {
      "inputs": [
        {
          "internalType": "uint256",
          "name": "_amount",
          "type": "uint256"
        },
        {
          "internalType": "uint256",
          "name": "status",
          "type": "uint256"
        }
      ],
      "name": "stakeTokens",
      "outputs": [],
      "stateMutability": "nonpayable",
      "type": "function"
    },
    {
      "inputs": [
        {
          "internalType": "uint256",
          "name": "index",
          "type": "uint256"
        }
      ],
      "name": "_withdrawStake",
      "outputs": [],
      "stateMutability": "nonpayable",
      "type": "function"
    }
  ],
  "bytecode": "0x608060405234801561001057600080fd5b506127df806100206000396000f3fe6080604052600436106100fe5760003560e01c8063715018a611610095578063c07b059111610064578063c07b059114610307578063c5ce010714610311578063f2fde38b1461033a578063fc0c546a14610363578063fd5e6dd11461038e576100fe565b8063715018a61461027e5780638da5cb5b146102955780639529441e146102c0578063a28835b6146102eb576100fe565b80633610724e116100d15780633610724e146101d35780633b7b6188146101ef57806345b701981461021857806345bc78ab14610241576100fe565b806306fdde031461010357806312065fe01461012e57806316934fc4146101595780631d6b8b7214610196575b600080fd5b34801561010f57600080fd5b506101186103cb565b6040516101259190611fe7565b60405180910390f35b34801561013a57600080fd5b50610143610459565b6040516101509190612109565b60405180910390f35b34801561016557600080fd5b50610180600480360381019061017b9190611a2b565b610461565b60405161018d9190612109565b60405180910390f35b3480156101a257600080fd5b506101bd60048036038101906101b89190611b0d565b610479565b6040516101ca9190611eea565b60405180910390f35b6101ed60048036038101906101e89190611b0d565b6104c7565b005b3480156101fb57600080fd5b5061021660048036038101906102119190611b5f565b61075e565b005b34801561022457600080fd5b5061023f600480360381019061023a9190611b0d565b610bcb565b005b34801561024d57600080fd5b5061026860048036038101906102639190611a2b565b610fc5565b6040516102759190612109565b60405180910390f35b34801561028a57600080fd5b50610293610fdd565b005b3480156102a157600080fd5b506102aa611065565b6040516102b79190611eea565b60405180910390f35b3480156102cc57600080fd5b506102d561108f565b6040516102e29190611faa565b60405180910390f35b61030560048036038101906103009190611a54565b611232565b005b61030f6112d6565b005b34801561031d57600080fd5b5061033860048036038101906103339190611aa6565b6114ae565b005b34801561034657600080fd5b50610361600480360381019061035c9190611a2b565b61156a565b005b34801561036f57600080fd5b50610378611662565b6040516103859190611fcc565b60405180910390f35b34801561039a57600080fd5b506103b560048036038101906103b09190611b0d565b611688565b6040516103c29190611eea565b60405180910390f35b606680546103d890612426565b80601f016020809104026020016040519081016040528092919081815260200182805461040490612426565b80156104515780601f1061042657610100808354040283529160200191610451565b820191906000526020600020905b81548152906001019060200180831161043457829003601f168201915b505050505081565b600047905090565b60696020528060005260406000206000915090505481565b606b818154811061048957600080fd5b90600052602060002090600202016000915090508060000160009054906101000a900473ffffffffffffffffffffffffffffffffffffffff16905081565b6000341161050a576040517f08c379a000000000000000000000000000000000000000000000000000000000815260040161050190612029565b60405180910390fd5b6000813461051891906122c6565b905080606560009054906101000a900473ffffffffffffffffffffffffffffffffffffffff1673ffffffffffffffffffffffffffffffffffffffff166370a08231306040518263ffffffff1660e01b81526004016105769190611eea565b60206040518083038186803b15801561058e57600080fd5b505afa1580156105a2573d6000803e3d6000fd5b505050506040513d601f19601f820116820180604052508101906105c69190611b36565b1015610607576040517f08c379a00000000000000000000000000000000000000000000000000000000081526004016105fe90612089565b60405180910390fd5b6000606560009054906101000a900473ffffffffffffffffffffffffffffffffffffffff1673ffffffffffffffffffffffffffffffffffffffff1663a9059cbb33846040518363ffffffff1660e01b8152600401610666929190611f81565b602060405180830381600087803b15801561068057600080fd5b505af1158015610694573d6000803e3d6000fd5b505050506040513d601f19601f820116820180604052508101906106b89190611a7d565b9050806106fa576040517f08c379a00000000000000000000000000000000000000000000000000000000081526004016106f1906120e9565b60405180910390fd5b7f6faf93231a456e552dbc9961f58d9713ee4f2e69d15f1975b050ef0911053a7b33606560009054906101000a900473ffffffffffffffffffffffffffffffffffffffff1684866040516107519493929190611f3c565b60405180910390a1505050565b600082116107a1576040517f08c379a0000000000000000000000000000000000000000000000000000000008152600401610798906120c9565b60405180910390fd5b6000606560009054906101000a900473ffffffffffffffffffffffffffffffffffffffff1673ffffffffffffffffffffffffffffffffffffffff166370a08231336040518263ffffffff1660e01b81526004016107fe9190611eea565b60206040518083038186803b15801561081657600080fd5b505afa15801561082a573d6000803e3d6000fd5b505050506040513d601f19601f8201168201806040525081019061084e9190611b36565b905082811015610893576040517f08c379a000000000000000000000000000000000000000000000000000000000815260040161088a90612049565b60405180910390fd5b6000606960003373ffffffffffffffffffffffffffffffffffffffff1673ffffffffffffffffffffffffffffffffffffffff16815260200190815260200160002054905060008114156108ec576108e9336116c7565b90505b83606860003373ffffffffffffffffffffffffffffffffffffffff1673ffffffffffffffffffffffffffffffffffffffff168152602001908152602001600020600082825461093b919061223f565b925050819055506000606560009054906101000a900473ffffffffffffffffffffffffffffffffffffffff1673ffffffffffffffffffffffffffffffffffffffff166323b872dd3330886040518463ffffffff1660e01b81526004016109a393929190611f05565b602060405180830381600087803b1580156109bd57600080fd5b505af11580156109d1573d6000803e3d6000fd5b505050506040513d601f19601f820116820180604052508101906109f59190611a7d565b905080610a37576040517f08c379a0000000000000000000000000000000000000000000000000000000008152600401610a2e90612069565b60405180910390fd5b606b8281548110610a71577f4e487b7100000000000000000000000000000000000000000000000000000000600052603260045260246000fd5b90600052602060002090600202016001016040518060a001604052808781526020014281526020018681526020013373ffffffffffffffffffffffffffffffffffffffff16815260200160011515815250908060018154018082558091505060019003906000526020600020906004020160009091909190915060008201518160000155602082015181600101556040820151816002015560608201518160030160006101000a81548173ffffffffffffffffffffffffffffffffffffffff021916908373ffffffffffffffffffffffffffffffffffffffff16021790555060808201518160030160146101000a81548160ff02191690831515021790555050503373ffffffffffffffffffffffffffffffffffffffff167fb4caaf29adda3eefee3ad552a8e85058589bf834c7466cae4ee58787f70589ed868442604051610bbc93929190612124565b60405180910390a25050505050565b6000606960003373ffffffffffffffffffffffffffffffffffffffff1673ffffffffffffffffffffffffffffffffffffffff1681526020019081526020016000205490506000606b8281548110610c4b577f4e487b7100000000000000000000000000000000000000000000000000000000600052603260045260246000fd5b90600052602060002090600202016001018381548110610c94577f4e487b7100000000000000000000000000000000000000000000000000000000600052603260045260246000fd5b90600052602060002090600402016040518060a00160405290816000820154815260200160018201548152602001600282015481526020016003820160009054906101000a900473ffffffffffffffffffffffffffffffffffffffff1673ffffffffffffffffffffffffffffffffffffffff1673ffffffffffffffffffffffffffffffffffffffff1681526020016003820160149054906101000a900460ff161515151581525050905060011515816080015115151415610fc05760008160800190151590811515815250506000816020015142610d729190612320565b90506000826000015190506000806000806000600288604001511415610da357601e94506019935060149250610db0565b6064945060649350603292505b6303bfc4008710610dfa5760028563ffffffff16606488610dd19190612295565b610ddb91906122c6565b610de591906122c6565b90508581610df3919061223f565b9150610eae565b6301dfe2008710610e38578363ffffffff16606487610e199190612295565b610e2391906122c6565b90508581610e31919061223f565b9150610ead565b62eff1008710610e815760028363ffffffff16606488610e589190612295565b610e6291906122c6565b610e6c9190612295565b90508581610e7a919061223f565b9150610eac565b60788710610ea757670de0b6b3a764000090508581610ea0919061223f565b9150610eab565b8591505b5b5b5b606560009054906101000a900473ffffffffffffffffffffffffffffffffffffffff1673ffffffffffffffffffffffffffffffffffffffff1663a9059cbb33846040518363ffffffff1660e01b8152600401610f0b929190611f81565b602060405180830381600087803b158015610f2557600080fd5b505af1158015610f39573d6000803e3d6000fd5b505050506040513d601f19601f82011682018060405250810190610f5d9190611a7d565b508760000151606860003373ffffffffffffffffffffffffffffffffffffffff1673ffffffffffffffffffffffffffffffffffffffff1681526020019081526020016000206000828254610fb19190612320565b92505081905550505050505050505b505050565b60686020528060005260406000206000915090505481565b610fe56117d4565b73ffffffffffffffffffffffffffffffffffffffff16611003611065565b73ffffffffffffffffffffffffffffffffffffffff1614611059576040517f08c379a0000000000000000000000000000000000000000000000000000000008152600401611050906120a9565b60405180910390fd5b61106360006117dc565b565b6000603360009054906101000a900473ffffffffffffffffffffffffffffffffffffffff16905090565b6060606b805480602002602001604051908101604052809291908181526020016000905b8282101561122957838290600052602060002090600202016040518060400160405290816000820160009054906101000a900473ffffffffffffffffffffffffffffffffffffffff1673ffffffffffffffffffffffffffffffffffffffff1673ffffffffffffffffffffffffffffffffffffffff16815260200160018201805480602002602001604051908101604052809291908181526020016000905b8282101561121257838290600052602060002090600402016040518060a00160405290816000820154815260200160018201548152602001600282015481526020016003820160009054906101000a900473ffffffffffffffffffffffffffffffffffffffff1673ffffffffffffffffffffffffffffffffffffffff1673ffffffffffffffffffffffffffffffffffffffff1681526020016003820160149054906101000a900460ff16151515158152505081526020019060010190611151565b5050505081525050815260200190600101906110b3565b50505050905090565b606760009054906101000a900473ffffffffffffffffffffffffffffffffffffffff1673ffffffffffffffffffffffffffffffffffffffff163373ffffffffffffffffffffffffffffffffffffffff161461128c57600080fd5b8073ffffffffffffffffffffffffffffffffffffffff166108fc479081150290604051600060405180830381858888f193505050501580156112d2573d6000803e3d6000fd5b5050565b606760009054906101000a900473ffffffffffffffffffffffffffffffffffffffff1673ffffffffffffffffffffffffffffffffffffffff163373ffffffffffffffffffffffffffffffffffffffff161461133057600080fd5b606560009054906101000a900473ffffffffffffffffffffffffffffffffffffffff1673ffffffffffffffffffffffffffffffffffffffff1663a9059cbb606760009054906101000a900473ffffffffffffffffffffffffffffffffffffffff16606560009054906101000a900473ffffffffffffffffffffffffffffffffffffffff1673ffffffffffffffffffffffffffffffffffffffff166370a08231306040518263ffffffff1660e01b81526004016113ec9190611eea565b60206040518083038186803b15801561140457600080fd5b505afa158015611418573d6000803e3d6000fd5b505050506040513d601f19601f8201168201806040525081019061143c9190611b36565b6040518363ffffffff1660e01b8152600401611459929190611f81565b602060405180830381600087803b15801561147357600080fd5b505af1158015611487573d6000803e3d6000fd5b505050506040513d601f19601f820116820180604052508101906114ab9190611a7d565b50565b606b6001816001815401808255809150500390600052602060002090505082606560006101000a81548173ffffffffffffffffffffffffffffffffffffffff021916908373ffffffffffffffffffffffffffffffffffffffff16021790555081606690805190602001906115239291906118a2565b5080606760006101000a81548173ffffffffffffffffffffffffffffffffffffffff021916908373ffffffffffffffffffffffffffffffffffffffff160217905550505050565b6115726117d4565b73ffffffffffffffffffffffffffffffffffffffff16611590611065565b73ffffffffffffffffffffffffffffffffffffffff16146115e6576040517f08c379a00000000000000000000000000000000000000000000000000000000081526004016115dd906120a9565b60405180910390fd5b600073ffffffffffffffffffffffffffffffffffffffff168173ffffffffffffffffffffffffffffffffffffffff161415611656576040517f08c379a000000000000000000000000000000000000000000000000000000000815260040161164d90612009565b60405180910390fd5b61165f816117dc565b50565b606560009054906101000a900473ffffffffffffffffffffffffffffffffffffffff1681565b606a818154811061169857600080fd5b906000526020600020016000915054906101000a900473ffffffffffffffffffffffffffffffffffffffff1681565b6000606b6001816001815401808255809150500390600052602060002090505060006001606b805490506116fb9190612320565b905082606b8281548110611738577f4e487b7100000000000000000000000000000000000000000000000000000000600052603260045260246000fd5b906000526020600020906002020160000160006101000a81548173ffffffffffffffffffffffffffffffffffffffff021916908373ffffffffffffffffffffffffffffffffffffffff16021790555080606960008573ffffffffffffffffffffffffffffffffffffffff1673ffffffffffffffffffffffffffffffffffffffff1681526020019081526020016000208190555080915050919050565b600033905090565b6000603360009054906101000a900473ffffffffffffffffffffffffffffffffffffffff16905081603360006101000a81548173ffffffffffffffffffffffffffffffffffffffff021916908373ffffffffffffffffffffffffffffffffffffffff1602179055508173ffffffffffffffffffffffffffffffffffffffff168173ffffffffffffffffffffffffffffffffffffffff167f8be0079c531659141344cd1fd0a4f28419497f9722a3daafe3b4186f6b6457e060405160405180910390a35050565b8280546118ae90612426565b90600052602060002090601f0160209004810192826118d05760008555611917565b82601f106118e957805160ff1916838001178555611917565b82800160010185558215611917579182015b828111156119165782518255916020019190600101906118fb565b5b5090506119249190611928565b5090565b5b80821115611941576000816000905550600101611929565b5090565b600061195861195384612180565b61215b565b90508281526020810184848401111561197057600080fd5b61197b8482856123e4565b509392505050565b60008135905061199281612736565b92915050565b6000813590506119a78161274d565b92915050565b6000815190506119bc81612764565b92915050565b6000813590506119d18161277b565b92915050565b600082601f8301126119e857600080fd5b81356119f8848260208601611945565b91505092915050565b600081359050611a1081612792565b92915050565b600081519050611a2581612792565b92915050565b600060208284031215611a3d57600080fd5b6000611a4b84828501611983565b91505092915050565b600060208284031215611a6657600080fd5b6000611a7484828501611998565b91505092915050565b600060208284031215611a8f57600080fd5b6000611a9d848285016119ad565b91505092915050565b600080600060608486031215611abb57600080fd5b6000611ac9868287016119c2565b935050602084013567ffffffffffffffff811115611ae657600080fd5b611af2868287016119d7565b9250506040611b0386828701611983565b9150509250925092565b600060208284031215611b1f57600080fd5b6000611b2d84828501611a01565b91505092915050565b600060208284031215611b4857600080fd5b6000611b5684828501611a16565b91505092915050565b60008060408385031215611b7257600080fd5b6000611b8085828601611a01565b9250506020611b9185828601611a01565b9150509250929050565b6000611ba78383611e27565b60a08301905092915050565b6000611bbf8383611e8f565b905092915050565b611bd081612354565b82525050565b611bdf81612354565b82525050565b6000611bf0826121d1565b611bfa818561220c565b9350611c05836121b1565b8060005b83811015611c36578151611c1d8882611b9b565b9750611c28836121f2565b925050600181019050611c09565b5085935050505092915050565b6000611c4e826121dc565b611c58818561221d565b935083602082028501611c6a856121c1565b8060005b85811015611ca65784840389528151611c878582611bb3565b9450611c92836121ff565b925060208a01995050600181019050611c6e565b50829750879550505050505092915050565b611cc181612378565b82525050565b611cd0816123c0565b82525050565b6000611ce1826121e7565b611ceb818561222e565b9350611cfb8185602086016123f3565b611d0481612545565b840191505092915050565b6000611d1c60268361222e565b9150611d2782612556565b604082019050919050565b6000611d3f601b8361222e565b9150611d4a826125a5565b602082019050919050565b6000611d6260408361222e565b9150611d6d826125ce565b604082019050919050565b6000611d85602d8361222e565b9150611d908261261d565b604082019050919050565b6000611da860348361222e565b9150611db38261266c565b604082019050919050565b6000611dcb60208361222e565b9150611dd6826126bb565b602082019050919050565b6000611dee60148361222e565b9150611df9826126e4565b602082019050919050565b6000611e1160208361222e565b9150611e1c8261270d565b602082019050919050565b60a082016000820151611e3d6000850182611ecc565b506020820151611e506020850182611ecc565b506040820151611e636040850182611ecc565b506060820151611e766060850182611bc7565b506080820151611e896080850182611cb8565b50505050565b6000604083016000830151611ea76000860182611bc7565b5060208301518482036020860152611ebf8282611be5565b9150508091505092915050565b611ed5816123b6565b82525050565b611ee4816123b6565b82525050565b6000602082019050611eff6000830184611bd6565b92915050565b6000606082019050611f1a6000830186611bd6565b611f276020830185611bd6565b611f346040830184611edb565b949350505050565b6000608082019050611f516000830187611bd6565b611f5e6020830186611bd6565b611f6b6040830185611edb565b611f786060830184611edb565b95945050505050565b6000604082019050611f966000830185611bd6565b611fa36020830184611edb565b9392505050565b60006020820190508181036000830152611fc48184611c43565b905092915050565b6000602082019050611fe16000830184611cc7565b92915050565b600060208201905081810360008301526120018184611cd6565b905092915050565b6000602082019050818103600083015261202281611d0f565b9050919050565b6000602082019050818103600083015261204281611d32565b9050919050565b6000602082019050818103600083015261206281611d55565b9050919050565b6000602082019050818103600083015261208281611d78565b9050919050565b600060208201905081810360008301526120a281611d9b565b9050919050565b600060208201905081810360008301526120c281611dbe565b9050919050565b600060208201905081810360008301526120e281611de1565b9050919050565b6000602082019050818103600083015261210281611e04565b9050919050565b600060208201905061211e6000830184611edb565b92915050565b60006060820190506121396000830186611edb565b6121466020830185611edb565b6121536040830184611edb565b949350505050565b6000612165612176565b90506121718282612458565b919050565b6000604051905090565b600067ffffffffffffffff82111561219b5761219a612516565b5b6121a482612545565b9050602081019050919050565b6000819050602082019050919050565b6000819050602082019050919050565b600081519050919050565b600081519050919050565b600081519050919050565b6000602082019050919050565b6000602082019050919050565b600082825260208201905092915050565b600082825260208201905092915050565b600082825260208201905092915050565b600061224a826123b6565b9150612255836123b6565b9250827fffffffffffffffffffffffffffffffffffffffffffffffffffffffffffffffff0382111561228a57612289612489565b5b828201905092915050565b60006122a0826123b6565b91506122ab836123b6565b9250826122bb576122ba6124b8565b5b828204905092915050565b60006122d1826123b6565b91506122dc836123b6565b9250817fffffffffffffffffffffffffffffffffffffffffffffffffffffffffffffffff048311821515161561231557612314612489565b5b828202905092915050565b600061232b826123b6565b9150612336836123b6565b92508282101561234957612348612489565b5b828203905092915050565b600061235f82612396565b9050919050565b600061237182612396565b9050919050565b60008115159050919050565b600061238f82612354565b9050919050565b600073ffffffffffffffffffffffffffffffffffffffff82169050919050565b6000819050919050565b60006123cb826123d2565b9050919050565b60006123dd82612396565b9050919050565b82818337600083830152505050565b60005b838110156124115780820151818401526020810190506123f6565b83811115612420576000848401525b50505050565b6000600282049050600182168061243e57607f821691505b60208210811415612452576124516124e7565b5b50919050565b61246182612545565b810181811067ffffffffffffffff821117156124805761247f612516565b5b80604052505050565b7f4e487b7100000000000000000000000000000000000000000000000000000000600052601160045260246000fd5b7f4e487b7100000000000000000000000000000000000000000000000000000000600052601260045260246000fd5b7f4e487b7100000000000000000000000000000000000000000000000000000000600052602260045260246000fd5b7f4e487b7100000000000000000000000000000000000000000000000000000000600052604160045260246000fd5b6000601f19601f8301169050919050565b7f4f776e61626c653a206e6577206f776e657220697320746865207a65726f206160008201527f6464726573730000000000000000000000000000000000000000000000000000602082015250565b7f53656e642045544820746f2062757920736f6d6520746f6b656e730000000000600082015250565b7f596f75722062616c616e6365206973206c6f776572207468616e20746865206160008201527f6d6f756e74206f6620746f6b656e7320796f752077616e7420746f2073656c6c602082015250565b7f4661696c656420746f207472616e7366657220746f6b656e732066726f6d207560008201527f73657220746f2076656e646f7200000000000000000000000000000000000000602082015250565b7f56656e646f7220636f6e747261637420686173206e6f7420656e6f756768207460008201527f6f6b656e7320696e206974732062616c616e6365000000000000000000000000602082015250565b7f4f776e61626c653a2063616c6c6572206973206e6f7420746865206f776e6572600082015250565b7f43616e6e6f74207374616b65206e6f7468696e67000000000000000000000000600082015250565b7f4661696c656420746f207472616e7366657220746f6b656e20746f2075736572600082015250565b61273f81612354565b811461274a57600080fd5b50565b61275681612366565b811461276157600080fd5b50565b61276d81612378565b811461277857600080fd5b50565b61278481612384565b811461278f57600080fd5b50565b61279b816123b6565b81146127a657600080fd5b5056fea2646970667358221220863bccd3fcada16f51d781d111cfa5634371d8dccfc26dec23e02bf22cb68f9f64736f6c63430008030033",
  "immutableReferences": {},
  "source": "// SPDX-License-Identifier: MIT\npragma solidity ^0.8.3;\n\nimport \"@openzeppelin/contracts-upgradeable/token/ERC20/IERC20Upgradeable.sol\";\nimport \"@openzeppelin/contracts-upgradeable/access/OwnableUpgradeable.sol\";\n\n// import \"@openzeppelin/contracts/token/ERC20/IERC20.sol\";\n// import \"@openzeppelin/contracts/access/Ownable.sol\";\n\ncontract FairTraderExchangeV2 is OwnableUpgradeable {\n    IERC20Upgradeable public token;\n    string public name;\n    // uint256 public tokenPrice;\n    address adminWalletAddress;\n\n    mapping(address => uint256) public stakingBalance;\n    // mapping(address => bool) public isStaking;\n    mapping(address => uint256) public stakes;\n\n    address[] public stakers;\n    Stakeholder[] public stakeholders;\n\n    event TokensPurchased(\n        address account,\n        address token,\n        uint256 amount,\n        uint256 rateFtp\n    );\n    event Staked(\n        address indexed user,\n        uint256 amount,\n        uint256 index,\n        uint256 timestamp\n    );\n\n    struct Stake {\n        uint256 amount;\n        uint256 since;\n        uint256 stakeStatus;\n        address user;\n        bool claimable;\n    }\n\n    struct Stakeholder {\n        address user;\n        Stake[] address_stakes;\n    }\n\n    modifier handleWithdrawFundsModifier() {\n        require(msg.sender == adminWalletAddress);\n        _;\n    }\n\n    function storeConstructor(\n        IERC20Upgradeable _token,\n        string memory _name,\n        address _adminWalletAddress\n    ) public {\n        stakeholders.push();\n        token = _token;\n        name = _name;\n        adminWalletAddress = _adminWalletAddress;\n    }\n\n    function getBalance() external view returns (uint256) {\n        return address(this).balance;\n    }\n\n    function exchangeHistoryOfStake() external view returns (Stakeholder[] memory) {\n        return stakeholders;\n    }\n\n    function _addStakeholder(address staker) internal returns (uint256) {\n        stakeholders.push();\n        uint256 userIndex = stakeholders.length - 1;\n        stakeholders[userIndex].user = staker;\n        stakes[staker] = userIndex;\n        return userIndex;\n    }\n\n    // to set the token price\n    // function exchangeTokenPrice(uint256 _tokenPrice) external handleWithdrawFundsModifier() {\n    //     tokenPrice = _tokenPrice;\n    // }\n\n    function adminWithdraw(address payable recipient) external handleWithdrawFundsModifier() payable {\n        recipient.transfer(address(this).balance);\n    }\n\n    function adminWithdrawToken() external handleWithdrawFundsModifier() payable {\n        token.transfer(adminWalletAddress, token.balanceOf(address(this)));\n    }\n    \n\n    // https://stermi.medium.com/how-to-create-an-erc20-token-and-a-solidity-vendor-contract-to-sell-buy-your-own-token-8882808dd905\n\n    // function buyTokens() public payable {\n    function buyTokens(uint256 _liveRate) public payable {\n        require(msg.value > 0, \"Send ETH to buy some tokens\");\n\n        // uint256 tokenAmount = msg.value * tokenPrice;\n        uint256 tokenAmount = msg.value * _liveRate;\n\n        require(token.balanceOf(address(this)) >= tokenAmount, \"Vendor contract has not enough tokens in its balance\");\n\n        // Transfer token to the msg.sender\n        (bool sent) = token.transfer(msg.sender, tokenAmount);\n        require(sent, \"Failed to transfer token to user\");\n\n        emit TokensPurchased(\n            msg.sender,\n            address(token),\n            tokenAmount,\n            // tokenPrice\n            _liveRate\n        );\n    }\n\n    function stakeTokens(uint256 _amount, uint256 status) public {\n        // Check that the requested amount of tokens to sell is more than 0\n        require(_amount > 0, \"Cannot stake nothing\");\n\n        // Check that the user's token balance is enough to do the swap\n        uint256 userBalance = token.balanceOf(msg.sender);\n        require(userBalance >= _amount, \"Your balance is lower than the amount of tokens you want to sell\");\n\n        uint256 index = stakes[msg.sender];\n        if (index == 0) {\n            index = _addStakeholder(msg.sender);\n        }\n        stakingBalance[msg.sender] += _amount;\n        // isStaking[msg.sender] = true;\n\n        bool sent = token.transferFrom(msg.sender, address(this), _amount);\n        require(sent, \"Failed to transfer tokens from user to vendor\");\n\n        stakeholders[index].address_stakes.push(\n            Stake(_amount, block.timestamp, status, msg.sender, true)\n        );\n        emit Staked(msg.sender, _amount, index, block.timestamp);\n    }\n    \n    function _withdrawStake(uint256 index) public {\n        uint256 user_index = stakes[msg.sender];\n        Stake memory current_stake = stakeholders[user_index].address_stakes[\n            index\n        ];\n        if (current_stake.claimable == true) {\n            current_stake.claimable = false;\n\n            uint256 timeDiffrence = block.timestamp - current_stake.since;\n\n            uint256 unstakeAmount = current_stake.amount;\n\n            uint32 ftpPercentage24M;\n            uint32 ftpPercentage12M;\n            uint32 ftpPercentage06M;\n\n            uint256 incentiveAmount;\n            uint256 countIntrest;\n            if (current_stake.stakeStatus == 2) {\n                ftpPercentage24M = 30;\n                ftpPercentage12M = 25;\n                ftpPercentage06M = 20;\n            } else {\n                ftpPercentage24M = 100;\n                ftpPercentage12M = 100;\n                ftpPercentage06M = 50;\n            }\n\n            if (timeDiffrence >= 104 weeks) {\n                countIntrest = ((unstakeAmount / 100) * ftpPercentage24M) * 2;\n                incentiveAmount = countIntrest + unstakeAmount;\n            } else if (timeDiffrence >= 52 weeks) {\n                countIntrest = ((unstakeAmount / 100) * ftpPercentage12M);\n                incentiveAmount = countIntrest + unstakeAmount;\n            } else if (timeDiffrence >= 26 weeks) {\n                countIntrest = ((unstakeAmount / 100) * ftpPercentage06M) / 2;\n                incentiveAmount = countIntrest + unstakeAmount;\n            } else if (timeDiffrence >= 2 minutes) {\n                countIntrest = 1000000000000000000;\n                incentiveAmount = countIntrest + unstakeAmount;\n            } else {\n                incentiveAmount = unstakeAmount;\n            }\n\n            token.transfer(msg.sender, incentiveAmount);\n            stakingBalance[msg.sender] -= current_stake.amount;\n        }\n    }\n}\n",
  "sourcePath": "/home/abdullah/Desktop/fairTrader/fAIRTRADERBLOCKCHAIN/upgradable contract/MAINUPGRADECONTRACT/contracts/FairTraderExchangeV2.sol",
  "compiler": {
    "name": "solc",
    "version": "0.8.3+commit.8d00100c.Emscripten.clang"
  },
  "schemaVersion": "3.4.4",
  "updatedAt": "2022-05-08T07:30:44.355Z",
  "networkType": "ethereum",
  "devdoc": {
    "kind": "dev",
    "methods": {
      "owner()": {
        "details": "Returns the address of the current owner."
      },
      "renounceOwnership()": {
        "details": "Leaves the contract without owner. It will not be possible to call `onlyOwner` functions anymore. Can only be called by the current owner. NOTE: Renouncing ownership will leave the contract without an owner, thereby removing any functionality that is only available to the owner."
      },
      "transferOwnership(address)": {
        "details": "Transfers ownership of the contract to a new account (`newOwner`). Can only be called by the current owner."
      }
    },
    "version": 1
  },
  "userdoc": {
    "kind": "user",
    "methods": {},
    "version": 1
  }
}